{
  "_format": "hh-sol-artifact-1",
  "contractName": "ComptrollerLib",
  "sourceName": "contracts/ComptrollerLib.sol",
  "abi": [
    {
      "inputs": [
        {
          "internalType": "address",
          "name": "_dispatcher",
          "type": "address"
        },
        {
          "internalType": "address",
          "name": "_fundDeployer",
          "type": "address"
        },
        {
          "internalType": "address",
          "name": "_valueInterpreter",
          "type": "address"
        },
        {
          "internalType": "address",
          "name": "_feeManager",
          "type": "address"
        },
        {
          "internalType": "address",
          "name": "_integrationManager",
          "type": "address"
        },
        {
          "internalType": "address",
          "name": "_policyManager",
          "type": "address"
        },
        {
          "internalType": "address",
          "name": "_primitivePriceFeed",
          "type": "address"
        },
        {
          "internalType": "address",
          "name": "_synthetixPriceFeed",
          "type": "address"
        },
        {
          "internalType": "address",
          "name": "_synthetixAddressResolver",
          "type": "address"
        }
      ],
      "stateMutability": "nonpayable",
      "type": "constructor"
    },
    {
      "anonymous": false,
      "inputs": [
        {
          "indexed": false,
          "internalType": "uint256",
          "name": "sharesDue",
          "type": "uint256"
        }
      ],
      "name": "MigratedSharesDuePaid",
      "type": "event"
    },
    {
      "anonymous": false,
      "inputs": [
        {
          "indexed": true,
          "internalType": "bool",
          "name": "overridePause",
          "type": "bool"
        }
      ],
      "name": "OverridePauseSet",
      "type": "event"
    },
    {
      "anonymous": false,
      "inputs": [
        {
          "indexed": false,
          "internalType": "bytes",
          "name": "failureReturnData",
          "type": "bytes"
        },
        {
          "indexed": false,
          "internalType": "address",
          "name": "redeemer",
          "type": "address"
        },
        {
          "indexed": false,
          "internalType": "uint256",
          "name": "sharesQuantity",
          "type": "uint256"
        }
      ],
      "name": "PreRedeemSharesHookFailed",
      "type": "event"
    },
    {
      "anonymous": false,
      "inputs": [
        {
          "indexed": true,
          "internalType": "address",
          "name": "caller",
          "type": "address"
        },
        {
          "indexed": true,
          "internalType": "address",
          "name": "buyer",
          "type": "address"
        },
        {
          "indexed": false,
          "internalType": "uint256",
          "name": "investmentAmount",
          "type": "uint256"
        },
        {
          "indexed": false,
          "internalType": "uint256",
          "name": "sharesIssued",
          "type": "uint256"
        },
        {
          "indexed": false,
          "internalType": "uint256",
          "name": "sharesReceived",
          "type": "uint256"
        }
      ],
      "name": "SharesBought",
      "type": "event"
    },
    {
      "anonymous": false,
      "inputs": [
        {
          "indexed": true,
          "internalType": "address",
          "name": "redeemer",
          "type": "address"
        },
        {
          "indexed": false,
          "internalType": "uint256",
          "name": "sharesQuantity",
          "type": "uint256"
        },
        {
          "indexed": false,
          "internalType": "address[]",
          "name": "receivedAssets",
          "type": "address[]"
        },
        {
          "indexed": false,
          "internalType": "uint256[]",
          "name": "receivedAssetQuantities",
          "type": "uint256[]"
        }
      ],
      "name": "SharesRedeemed",
      "type": "event"
    },
    {
      "anonymous": false,
      "inputs": [
        {
          "indexed": false,
          "internalType": "address",
          "name": "vaultProxy",
          "type": "address"
        }
      ],
      "name": "VaultProxySet",
      "type": "event"
    },
    {
      "inputs": [
        {
          "internalType": "address",
          "name": "_vaultProxy",
          "type": "address"
        },
        {
          "internalType": "bool",
          "name": "_isMigration",
          "type": "bool"
        }
      ],
      "name": "activate",
      "outputs": [],
      "stateMutability": "nonpayable",
      "type": "function"
    },
    {
      "inputs": [
        {
          "internalType": "address[]",
          "name": "_buyers",
          "type": "address[]"
        },
        {
          "internalType": "uint256[]",
          "name": "_investmentAmounts",
          "type": "uint256[]"
        },
        {
          "internalType": "uint256[]",
          "name": "_minSharesQuantities",
          "type": "uint256[]"
        }
      ],
      "name": "buyShares",
      "outputs": [
        {
          "internalType": "uint256[]",
          "name": "sharesReceivedAmounts_",
          "type": "uint256[]"
        }
      ],
      "stateMutability": "nonpayable",
      "type": "function"
    },
    {
      "inputs": [
        {
          "internalType": "bool",
          "name": "_requireFinality",
          "type": "bool"
        }
      ],
      "name": "calcGav",
      "outputs": [
        {
          "internalType": "uint256",
          "name": "gav_",
          "type": "uint256"
        },
        {
          "internalType": "bool",
          "name": "isValid_",
          "type": "bool"
        }
      ],
      "stateMutability": "nonpayable",
      "type": "function"
    },
    {
      "inputs": [
        {
          "internalType": "bool",
          "name": "_requireFinality",
          "type": "bool"
        }
      ],
      "name": "calcGrossShareValue",
      "outputs": [
        {
          "internalType": "uint256",
          "name": "grossShareValue_",
          "type": "uint256"
        },
        {
          "internalType": "bool",
          "name": "isValid_",
          "type": "bool"
        }
      ],
      "stateMutability": "nonpayable",
      "type": "function"
    },
    {
      "inputs": [
        {
          "internalType": "address",
          "name": "_extension",
          "type": "address"
        },
        {
          "internalType": "uint256",
          "name": "_actionId",
          "type": "uint256"
        },
        {
          "internalType": "bytes",
          "name": "_callArgs",
          "type": "bytes"
        }
      ],
      "name": "callOnExtension",
      "outputs": [],
      "stateMutability": "nonpayable",
      "type": "function"
    },
    {
      "inputs": [
        {
          "internalType": "bytes",
          "name": "_feeManagerConfigData",
          "type": "bytes"
        },
        {
          "internalType": "bytes",
          "name": "_policyManagerConfigData",
          "type": "bytes"
        }
      ],
      "name": "configureExtensions",
      "outputs": [],
      "stateMutability": "nonpayable",
      "type": "function"
    },
    {
      "inputs": [],
      "name": "destruct",
      "outputs": [],
      "stateMutability": "nonpayable",
      "type": "function"
    },
    {
      "inputs": [],
      "name": "getDenominationAsset",
      "outputs": [
        {
          "internalType": "address",
          "name": "denominationAsset_",
          "type": "address"
        }
      ],
      "stateMutability": "view",
      "type": "function"
    },
    {
      "inputs": [],
      "name": "getLibRoutes",
      "outputs": [
        {
          "internalType": "address",
          "name": "dispatcher_",
          "type": "address"
        },
        {
          "internalType": "address",
          "name": "feeManager_",
          "type": "address"
        },
        {
          "internalType": "address",
          "name": "fundDeployer_",
          "type": "address"
        },
        {
          "internalType": "address",
          "name": "integrationManager_",
          "type": "address"
        },
        {
          "internalType": "address",
          "name": "policyManager_",
          "type": "address"
        },
        {
          "internalType": "address",
          "name": "primitivePriceFeed_",
          "type": "address"
        },
        {
          "internalType": "address",
          "name": "valueInterpreter_",
          "type": "address"
        }
      ],
      "stateMutability": "view",
      "type": "function"
    },
    {
      "inputs": [],
      "name": "getOverridePause",
      "outputs": [
        {
          "internalType": "bool",
          "name": "overridePause_",
          "type": "bool"
        }
      ],
      "stateMutability": "view",
      "type": "function"
    },
    {
      "inputs": [],
      "name": "getSharesActionTimelock",
      "outputs": [
        {
          "internalType": "uint256",
          "name": "sharesActionTimelock_",
          "type": "uint256"
        }
      ],
      "stateMutability": "view",
      "type": "function"
    },
    {
      "inputs": [],
      "name": "getSynthetixAddressResolver",
      "outputs": [
        {
          "internalType": "address",
          "name": "synthetixAddressResolver_",
          "type": "address"
        }
      ],
      "stateMutability": "view",
      "type": "function"
    },
    {
      "inputs": [],
      "name": "getSynthetixPriceFeed",
      "outputs": [
        {
          "internalType": "address",
          "name": "synthetixPriceFeed_",
          "type": "address"
        }
      ],
      "stateMutability": "view",
      "type": "function"
    },
    {
      "inputs": [],
      "name": "getVaultProxy",
      "outputs": [
        {
          "internalType": "address",
          "name": "vaultProxy_",
          "type": "address"
        }
      ],
      "stateMutability": "view",
      "type": "function"
    },
    {
      "inputs": [
        {
          "internalType": "address",
          "name": "_denominationAsset",
          "type": "address"
        },
        {
          "internalType": "uint256",
          "name": "_sharesActionTimelock",
          "type": "uint256"
        }
      ],
      "name": "init",
      "outputs": [],
      "stateMutability": "nonpayable",
      "type": "function"
    },
    {
      "inputs": [
        {
          "internalType": "enum IComptroller.VaultAction",
          "name": "_action",
          "type": "uint8"
        },
        {
          "internalType": "bytes",
          "name": "_actionData",
          "type": "bytes"
        }
      ],
      "name": "permissionedVaultAction",
      "outputs": [],
      "stateMutability": "nonpayable",
      "type": "function"
    },
    {
      "inputs": [],
      "name": "redeemShares",
      "outputs": [
        {
          "internalType": "address[]",
          "name": "payoutAssets_",
          "type": "address[]"
        },
        {
          "internalType": "uint256[]",
          "name": "payoutAmounts_",
          "type": "uint256[]"
        }
      ],
      "stateMutability": "nonpayable",
      "type": "function"
    },
    {
      "inputs": [
        {
          "internalType": "uint256",
          "name": "_sharesQuantity",
          "type": "uint256"
        },
        {
          "internalType": "address[]",
          "name": "_additionalAssets",
          "type": "address[]"
        },
        {
          "internalType": "address[]",
          "name": "_assetsToSkip",
          "type": "address[]"
        }
      ],
      "name": "redeemSharesDetailed",
      "outputs": [
        {
          "internalType": "address[]",
          "name": "payoutAssets_",
          "type": "address[]"
        },
        {
          "internalType": "uint256[]",
          "name": "payoutAmounts_",
          "type": "uint256[]"
        }
      ],
      "stateMutability": "nonpayable",
      "type": "function"
    },
    {
      "inputs": [
        {
          "internalType": "bool",
          "name": "_nextOverridePause",
          "type": "bool"
        }
      ],
      "name": "setOverridePause",
      "outputs": [],
      "stateMutability": "nonpayable",
      "type": "function"
    },
    {
      "inputs": [
        {
          "internalType": "address",
          "name": "_contract",
          "type": "address"
        },
        {
          "internalType": "bytes4",
          "name": "_selector",
          "type": "bytes4"
        },
        {
          "internalType": "bytes",
          "name": "_encodedArgs",
          "type": "bytes"
        }
      ],
      "name": "vaultCallOnContract",
      "outputs": [],
      "stateMutability": "nonpayable",
      "type": "function"
    }
  ],
  "bytecode": "0x6101a06040523480156200001257600080fd5b50604051620071783803806200717883398181016040526101208110156200003957600080fd5b8101908080519060200190929190805190602001909291908051906020019092919080519060200190929190805190602001909291908051906020019092919080519060200190929190805190602001909291908051906020019092919050505081818073ffffffffffffffffffffffffffffffffffffffff1660808173ffffffffffffffffffffffffffffffffffffffff1660601b815250508173ffffffffffffffffffffffffffffffffffffffff1660a08173ffffffffffffffffffffffffffffffffffffffff1660601b8152505050508873ffffffffffffffffffffffffffffffffffffffff1660c08173ffffffffffffffffffffffffffffffffffffffff1660601b815250508573ffffffffffffffffffffffffffffffffffffffff166101008173ffffffffffffffffffffffffffffffffffffffff1660601b815250508773ffffffffffffffffffffffffffffffffffffffff1660e08173ffffffffffffffffffffffffffffffffffffffff1660601b815250508473ffffffffffffffffffffffffffffffffffffffff166101208173ffffffffffffffffffffffffffffffffffffffff1660601b815250508273ffffffffffffffffffffffffffffffffffffffff166101408173ffffffffffffffffffffffffffffffffffffffff1660601b815250508373ffffffffffffffffffffffffffffffffffffffff166101608173ffffffffffffffffffffffffffffffffffffffff1660601b815250508673ffffffffffffffffffffffffffffffffffffffff166101808173ffffffffffffffffffffffffffffffffffffffff1660601b8152505060018060146101000a81548160ff02191690831515021790555050505050505050505060805160601c60a05160601c60c05160601c60e05160601c6101005160601c6101205160601c6101405160601c6101605160601c6101805160601c616daa620003ce6000398061216c52806126aa525080610ff25280611a485280611cc3528061212a5280614a5c52806151fb5280615eee528061628c52508061114e528061214b525080610f72528061139952806119bb52806121095280612fd7525080610ef25280611344528061192e5280611bff52806120c752806131015280614c0452806153a352806157bc5280615d9d528061613b5250806120e85280612209528061396152806155405250806120a652806129bd5280613c90525080611adb52806146d7525080611bc452806147a75250616daa6000f3fe608060405234801561001057600080fd5b506004361061012c5760003560e01c806396aed587116100ad578063d6ca66ce11610071578063d6ca66ce14610743578063e269c3d614610825578063e572ced114610859578063f513c9261461091b578063f9f585dd146109685761012c565b806396aed5871461052d578063b4170612146105fb578063b460481d14610648578063c0a4c0a3146106ef578063c98091871461070f5761012c565b80636487b384116100f45780636487b384146102d057806382d3a1dd146104455780638d064eae14610495578063944eb7b8146104c957806396471b08146104f95761012c565b806310acd06d146101315780632b68b9c6146101b7578063399ae724146101c157806339bf70d11461020f5780634da471b7146102b2575b600080fd5b6101b56004803603604081101561014757600080fd5b81019080803560ff1690602001909291908035906020019064010000000081111561017157600080fd5b82018360208201111561018357600080fd5b803590602001918460018302840111640100000000831117156101a557600080fd5b9091929391929390505050610ae0565b005b6101bf610e3a565b005b61020d600480360360408110156101d757600080fd5b81019080803573ffffffffffffffffffffffffffffffffffffffff1690602001909291908035906020019092919050505061108a565b005b6102b06004803603606081101561022557600080fd5b81019080803573ffffffffffffffffffffffffffffffffffffffff169060200190929190803590602001909291908035906020019064010000000081111561026c57600080fd5b82018360208201111561027e57600080fd5b803590602001918460018302840111640100000000831117156102a057600080fd5b90919293919293905050506112cb565b005b6102ba611535565b6040518082815260200191505060405180910390f35b6103a6600480360360608110156102e657600080fd5b81019080803590602001909291908035906020019064010000000081111561030d57600080fd5b82018360208201111561031f57600080fd5b8035906020019184602083028401116401000000008311171561034157600080fd5b90919293919293908035906020019064010000000081111561036257600080fd5b82018360208201111561037457600080fd5b8035906020019184602083028401116401000000008311171561039657600080fd5b909192939192939050505061153f565b604051808060200180602001838103835285818151815260200191508051906020019060200280838360005b838110156103ed5780820151818401526020810190506103d2565b50505050905001838103825284818151815260200191508051906020019060200280838360005b8381101561042f578082015181840152602081019050610414565b5050505090500194505050505060405180910390f35b6104936004803603604081101561045b57600080fd5b81019080803573ffffffffffffffffffffffffffffffffffffffff1690602001909291908035151590602001909291905050506115de565b005b61049d611ad7565b604051808273ffffffffffffffffffffffffffffffffffffffff16815260200191505060405180910390f35b6104f7600480360360208110156104df57600080fd5b81019080803515159060200190929190505050611aff565b005b610501611bc0565b604051808273ffffffffffffffffffffffffffffffffffffffff16815260200191505060405180910390f35b6105f96004803603604081101561054357600080fd5b810190808035906020019064010000000081111561056057600080fd5b82018360208201111561057257600080fd5b8035906020019184600183028401116401000000008311171561059457600080fd5b9091929391929390803590602001906401000000008111156105b557600080fd5b8201836020820111156105c757600080fd5b803590602001918460018302840111640100000000831117156105e957600080fd5b9091929391929390505050611be8565b005b6106296004803603602081101561061157600080fd5b81019080803515159060200190929190505050611d7f565b6040518083815260200182151581526020019250505060405180910390f35b610650611ef0565b604051808060200180602001838103835285818151815260200191508051906020019060200280838360005b8381101561069757808201518184015260208101905061067c565b50505050905001838103825284818151815260200191508051906020019060200280838360005b838110156106d95780820151818401526020810190506106be565b5050505090500194505050505060405180910390f35b6106f7612058565b60405180821515815260200191505060405180910390f35b61071761206f565b604051808273ffffffffffffffffffffffffffffffffffffffff16815260200191505060405180910390f35b61074b612099565b604051808873ffffffffffffffffffffffffffffffffffffffff1681526020018773ffffffffffffffffffffffffffffffffffffffff1681526020018673ffffffffffffffffffffffffffffffffffffffff1681526020018573ffffffffffffffffffffffffffffffffffffffff1681526020018473ffffffffffffffffffffffffffffffffffffffff1681526020018373ffffffffffffffffffffffffffffffffffffffff1681526020018273ffffffffffffffffffffffffffffffffffffffff16815260200197505050505050505060405180910390f35b61082d6121a2565b604051808273ffffffffffffffffffffffffffffffffffffffff16815260200191505060405180910390f35b6109196004803603606081101561086f57600080fd5b81019080803573ffffffffffffffffffffffffffffffffffffffff16906020019092919080357bffffffffffffffffffffffffffffffffffffffffffffffffffffffff19169060200190929190803590602001906401000000008111156108d557600080fd5b8201836020820111156108e757600080fd5b8035906020019184600183028401116401000000008311171561090957600080fd5b90919293919293905050506121cb565b005b6109496004803603602081101561093157600080fd5b810190808035151590602001909291905050506124aa565b6040518083815260200182151581526020019250505060405180910390f35b610a896004803603606081101561097e57600080fd5b810190808035906020019064010000000081111561099b57600080fd5b8201836020820111156109ad57600080fd5b803590602001918460208302840111640100000000831117156109cf57600080fd5b9091929391929390803590602001906401000000008111156109f057600080fd5b820183602082011115610a0257600080fd5b80359060200191846020830284011164010000000083111715610a2457600080fd5b909192939192939080359060200190640100000000811115610a4557600080fd5b820183602082011115610a5757600080fd5b80359060200191846020830284011164010000000083111715610a7957600080fd5b9091929391929390505050612838565b6040518080602001828103825283818151815260200191508051906020019060200280838360005b83811015610acc578082015181840152602081019050610ab1565b505050509050019250505060405180910390f35b610ae8612e4d565b610b13600160009054906101000a900473ffffffffffffffffffffffffffffffffffffffff16612eca565b610b1d3384612f70565b60066007811115610b2a57fe5b836007811115610b3657fe5b1415610b8e57610b8982828080601f016020809104026020016040519081016040528093929190818152602001838380828437600081840152601f19601f8201169050808301925050505050505061325f565b610e35565b60046007811115610b9b57fe5b836007811115610ba757fe5b1415610bff57610bfa82828080601f016020809104026020016040519081016040528093929190818152602001838380828437600081840152601f19601f82011690508083019250505050505050613330565b610e34565b60016007811115610c0c57fe5b836007811115610c1857fe5b1415610c7057610c6b82828080601f016020809104026020016040519081016040528093929190818152602001838380828437600081840152601f19601f82011690508083019250505050505050613444565b610e33565b60026007811115610c7d57fe5b836007811115610c8957fe5b1415610ce157610cdc82828080601f016020809104026020016040519081016040528093929190818152602001838380828437600081840152601f19601f8201169050808301925050505050505061352b565b610e32565b600780811115610ced57fe5b836007811115610cf957fe5b1415610d5157610d4c82828080601f016020809104026020016040519081016040528093929190818152602001838380828437600081840152601f19601f82011690508083019250505050505050613612565b610e31565b60036007811115610d5e57fe5b836007811115610d6a57fe5b1415610dc257610dbd82828080601f016020809104026020016040519081016040528093929190818152602001838380828437600081840152601f19601f82011690508083019250505050505050613737565b610e30565b60056007811115610dcf57fe5b836007811115610ddb57fe5b1415610e2f57610e2e82828080601f016020809104026020016040519081016040528093929190818152602001838380828437600081840152601f19601f8201169050808301925050505050505061384b565b5b5b5b5b5b5b5b505050565b610e433361395f565b610e4b612e4d565b610e53613a23565b60018060166101000a81548160ff021916908315150217905550600160149054906101000a900460ff1615610ef0576040517f08c379a00000000000000000000000000000000000000000000000000000000081526004018080602001828103825260208152602001807f64657374727563743a204f6e6c792064656c65676174652063616c6c61626c6581525060200191505060405180910390fd5b7f000000000000000000000000000000000000000000000000000000000000000073ffffffffffffffffffffffffffffffffffffffff1663bd8e959a6040518163ffffffff1660e01b8152600401600060405180830381600087803b158015610f5857600080fd5b505af1158015610f6c573d6000803e3d6000fd5b505050507f000000000000000000000000000000000000000000000000000000000000000073ffffffffffffffffffffffffffffffffffffffff1663bd8e959a6040518163ffffffff1660e01b8152600401600060405180830381600087803b158015610fd857600080fd5b505af1158015610fec573d6000803e3d6000fd5b505050507f000000000000000000000000000000000000000000000000000000000000000073ffffffffffffffffffffffffffffffffffffffff1663bd8e959a6040518163ffffffff1660e01b8152600401600060405180830381600087803b15801561105857600080fd5b505af115801561106c573d6000803e3d6000fd5b50505050600073ffffffffffffffffffffffffffffffffffffffff16ff5b600073ffffffffffffffffffffffffffffffffffffffff1660008054906101000a900473ffffffffffffffffffffffffffffffffffffffff1673ffffffffffffffffffffffffffffffffffffffff161461114c576040517f08c379a00000000000000000000000000000000000000000000000000000000081526004018080602001828103825260198152602001807f696e69743a20416c726561647920696e697469616c697a65640000000000000081525060200191505060405180910390fd5b7f000000000000000000000000000000000000000000000000000000000000000073ffffffffffffffffffffffffffffffffffffffff16639be918e6836040518263ffffffff1660e01b8152600401808273ffffffffffffffffffffffffffffffffffffffff16815260200191505060206040518083038186803b1580156111d357600080fd5b505afa1580156111e7573d6000803e3d6000fd5b505050506040513d60208110156111fd57600080fd5b8101908080519060200190929190505050611280576040517f08c379a000000000000000000000000000000000000000000000000000000000815260040180806020018281038252601c8152602001807f696e69743a204261642064656e6f6d696e6174696f6e2061737365740000000081525060200191505060405180910390fd5b816000806101000a81548173ffffffffffffffffffffffffffffffffffffffff021916908373ffffffffffffffffffffffffffffffffffffffff160217905550806002819055505050565b6112d3612e4d565b6112fe600160009054906101000a900473ffffffffffffffffffffffffffffffffffffffff16612eca565b611306613aa8565b60018060176101000a81548160ff021916908315150217905550611328613a23565b60018060166101000a81548160ff0219169083151502179055507f000000000000000000000000000000000000000000000000000000000000000073ffffffffffffffffffffffffffffffffffffffff168473ffffffffffffffffffffffffffffffffffffffff1614806113e757507f000000000000000000000000000000000000000000000000000000000000000073ffffffffffffffffffffffffffffffffffffffff168473ffffffffffffffffffffffffffffffffffffffff16145b61143c576040517f08c379a0000000000000000000000000000000000000000000000000000000008152600401808060200182810382526023815260200180616c626023913960400191505060405180910390fd5b8373ffffffffffffffffffffffffffffffffffffffff16631bee801e338585856040518563ffffffff1660e01b8152600401808573ffffffffffffffffffffffffffffffffffffffff168152602001848152602001806020018281038252848482818152602001925080828437600081840152601f19601f82011690508083019250505095505050505050600060405180830381600087803b1580156114e157600080fd5b505af11580156114f5573d6000803e3d6000fd5b505050506000600160166101000a81548160ff0219169083151502179055506000600160176101000a81548160ff02191690831515021790555050505050565b6000600254905090565b6060806115d03388888880806020026020016040519081016040528093929190818152602001838360200280828437600081840152601f19601f82011690508083019250505050505050878780806020026020016040519081016040528093929190818152602001838360200280828437600081840152601f19601f82011690508083019250505050505050613b2d565b915091509550959350505050565b6115e73361395f565b81600160006101000a81548173ffffffffffffffffffffffffffffffffffffffff021916908373ffffffffffffffffffffffffffffffffffffffff1602179055507f5be181178e61e61e33f79c396c7194b8f3c80f77899da7bd96fe537411300bcb82604051808273ffffffffffffffffffffffffffffffffffffffff16815260200191505060405180910390a1801561188b5760008273ffffffffffffffffffffffffffffffffffffffff166370a08231846040518263ffffffff1660e01b8152600401808273ffffffffffffffffffffffffffffffffffffffff16815260200191505060206040518083038186803b1580156116e457600080fd5b505afa1580156116f8573d6000803e3d6000fd5b505050506040513d602081101561170e57600080fd5b810190808051906020019092919050505090506000811115611889578273ffffffffffffffffffffffffffffffffffffffff1663bfc77beb848573ffffffffffffffffffffffffffffffffffffffff1663893d20e86040518163ffffffff1660e01b815260040160206040518083038186803b15801561178d57600080fd5b505afa1580156117a1573d6000803e3d6000fd5b505050506040513d60208110156117b757600080fd5b8101908080519060200190929190505050846040518463ffffffff1660e01b8152600401808473ffffffffffffffffffffffffffffffffffffffff1681526020018373ffffffffffffffffffffffffffffffffffffffff1681526020018281526020019350505050600060405180830381600087803b15801561183957600080fd5b505af115801561184d573d6000803e3d6000fd5b505050507f8f9ec2c1cf1f95fcb5d89d3141949092850c5cfe04da4d9425dd840bf18cdc70816040518082815260200191505060405180910390a15b505b8173ffffffffffffffffffffffffffffffffffffffff16634ef0762e60008054906101000a900473ffffffffffffffffffffffffffffffffffffffff166040518263ffffffff1660e01b8152600401808273ffffffffffffffffffffffffffffffffffffffff168152602001915050600060405180830381600087803b15801561191457600080fd5b505af1158015611928573d6000803e3d6000fd5b505050507f000000000000000000000000000000000000000000000000000000000000000073ffffffffffffffffffffffffffffffffffffffff166380d57063826040518263ffffffff1660e01b8152600401808215158152602001915050600060405180830381600087803b1580156119a157600080fd5b505af11580156119b5573d6000803e3d6000fd5b505050507f000000000000000000000000000000000000000000000000000000000000000073ffffffffffffffffffffffffffffffffffffffff166380d57063826040518263ffffffff1660e01b8152600401808215158152602001915050600060405180830381600087803b158015611a2e57600080fd5b505af1158015611a42573d6000803e3d6000fd5b505050507f000000000000000000000000000000000000000000000000000000000000000073ffffffffffffffffffffffffffffffffffffffff166380d57063826040518263ffffffff1660e01b8152600401808215158152602001915050600060405180830381600087803b158015611abb57600080fd5b505af1158015611acf573d6000803e3d6000fd5b505050505050565b60007f0000000000000000000000000000000000000000000000000000000000000000905090565b611b0833614543565b600160159054906101000a900460ff1615158115151415611b74576040517f08c379a0000000000000000000000000000000000000000000000000000000008152600401808060200182810382526023815260200180616d056023913960400191505060405180910390fd5b80600160156101000a81548160ff0219169083151502179055508015157fb59eda3d5fc7c642cf9caba744cbb07fd462d0754170bac672351ddbf8cda9dc60405160405180910390a250565b60007f0000000000000000000000000000000000000000000000000000000000000000905090565b611bf13361395f565b6000848490501115611cb5577f000000000000000000000000000000000000000000000000000000000000000073ffffffffffffffffffffffffffffffffffffffff166389cbe1d085856040518363ffffffff1660e01b815260040180806020018281038252848482818152602001925080828437600081840152601f19601f8201169050808301925050509350505050600060405180830381600087803b158015611c9c57600080fd5b505af1158015611cb0573d6000803e3d6000fd5b505050505b6000828290501115611d79577f000000000000000000000000000000000000000000000000000000000000000073ffffffffffffffffffffffffffffffffffffffff166389cbe1d083836040518363ffffffff1660e01b815260040180806020018281038252848482818152602001925080828437600081840152601f19601f8201169050808301925050509350505050600060405180830381600087803b158015611d6057600080fd5b505af1158015611d74573d6000803e3d6000fd5b505050505b50505050565b6000806000611d8d846124aa565b8093508192505050611ee881600160009054906101000a900473ffffffffffffffffffffffffffffffffffffffff1673ffffffffffffffffffffffffffffffffffffffff166318160ddd6040518163ffffffff1660e01b815260040160206040518083038186803b158015611e0157600080fd5b505afa158015611e15573d6000803e3d6000fd5b505050506040513d6020811015611e2b57600080fd5b810190808051906020019092919050505060008054906101000a900473ffffffffffffffffffffffffffffffffffffffff1673ffffffffffffffffffffffffffffffffffffffff1663313ce5676040518163ffffffff1660e01b815260040160206040518083038186803b158015611ea257600080fd5b505afa158015611eb6573d6000803e3d6000fd5b505050506040513d6020811015611ecc57600080fd5b810190808051906020019092919050505060ff16600a0a614689565b925050915091565b60608061205033600160009054906101000a900473ffffffffffffffffffffffffffffffffffffffff1673ffffffffffffffffffffffffffffffffffffffff166370a08231336040518263ffffffff1660e01b8152600401808273ffffffffffffffffffffffffffffffffffffffff16815260200191505060206040518083038186803b158015611f8057600080fd5b505afa158015611f94573d6000803e3d6000fd5b505050506040513d6020811015611faa57600080fd5b8101908080519060200190929190505050600067ffffffffffffffff81118015611fd357600080fd5b506040519080825280602002602001820160405280156120025781602001602082028036833780820191505090505b50600067ffffffffffffffff8111801561201b57600080fd5b5060405190808252806020026020018201604052801561204a5781602001602082028036833780820191505090505b50613b2d565b915091509091565b6000600160159054906101000a900460ff16905090565b6000600160009054906101000a900473ffffffffffffffffffffffffffffffffffffffff16905090565b60008060008060008060007f00000000000000000000000000000000000000000000000000000000000000007f00000000000000000000000000000000000000000000000000000000000000007f00000000000000000000000000000000000000000000000000000000000000007f00000000000000000000000000000000000000000000000000000000000000007f00000000000000000000000000000000000000000000000000000000000000007f00000000000000000000000000000000000000000000000000000000000000007f0000000000000000000000000000000000000000000000000000000000000000965096509650965096509650965090919293949596565b60008060009054906101000a900473ffffffffffffffffffffffffffffffffffffffff16905090565b6121d3612e4d565b6121fe600160009054906101000a900473ffffffffffffffffffffffffffffffffffffffff16612eca565b61220733614543565b7f000000000000000000000000000000000000000000000000000000000000000073ffffffffffffffffffffffffffffffffffffffff1663dc77205385856040518363ffffffff1660e01b8152600401808373ffffffffffffffffffffffffffffffffffffffff168152602001827bffffffffffffffffffffffffffffffffffffffffffffffffffffffff191681526020019250505060206040518083038186803b1580156122b557600080fd5b505afa1580156122c9573d6000803e3d6000fd5b505050506040513d60208110156122df57600080fd5b8101908080519060200190929190505050612345576040517f08c379a0000000000000000000000000000000000000000000000000000000008152600401808060200182810382526021815260200180616bdc6021913960400191505060405180910390fd5b600160009054906101000a900473ffffffffffffffffffffffffffffffffffffffff1673ffffffffffffffffffffffffffffffffffffffff1663a90cce4b8585858560405160200180847bffffffffffffffffffffffffffffffffffffffffffffffffffffffff191681526004018383808284378083019250505093505050506040516020818303038152906040526040518363ffffffff1660e01b8152600401808373ffffffffffffffffffffffffffffffffffffffff16815260200180602001828103825283818151815260200191508051906020019080838360005b8381101561243f578082015181840152602081019050612424565b50505050905090810190601f16801561246c5780820380516001836020036101000a031916815260200191505b509350505050600060405180830381600087803b15801561248c57600080fd5b505af11580156124a0573d6000803e3d6000fd5b5050505050505050565b6000806000600160009054906101000a900473ffffffffffffffffffffffffffffffffffffffff16905060608173ffffffffffffffffffffffffffffffffffffffff1663c4b973706040518163ffffffff1660e01b815260040160006040518083038186803b15801561251c57600080fd5b505afa158015612530573d6000803e3d6000fd5b505050506040513d6000823e3d601f19601f82011682018060405250602081101561255a57600080fd5b810190808051604051939291908464010000000082111561257a57600080fd5b8382019150602082018581111561259057600080fd5b82518660208202830111640100000000821117156125ad57600080fd5b8083526020830192505050908051906020019060200280838360005b838110156125e45780820151818401526020810190506125c9565b50505050905001604052505050905060008151141561260c5760006001935093505050612833565b6060815167ffffffffffffffff8111801561262657600080fd5b506040519080825280602002602001820160405280156126555781602001602082028036833780820191505090505b50905060005b82518110156126a7576126828484838151811061267457fe5b6020026020010151896146d2565b82828151811061268e57fe5b602002602001018181525050808060010191505061265b565b507f000000000000000000000000000000000000000000000000000000000000000073ffffffffffffffffffffffffffffffffffffffff1663ae6f52ad838360008054906101000a900473ffffffffffffffffffffffffffffffffffffffff166040518463ffffffff1660e01b81526004018080602001806020018473ffffffffffffffffffffffffffffffffffffffff168152602001838103835286818151815260200191508051906020019060200280838360005b8381101561277957808201518184015260208101905061275e565b50505050905001838103825285818151815260200191508051906020019060200280838360005b838110156127bb5780820151818401526020810190506127a0565b50505050905001955050505050506040805180830381600087803b1580156127e257600080fd5b505af11580156127f6573d6000803e3d6000fd5b505050506040513d604081101561280c57600080fd5b81019080805190602001909291908051906020019092919050505080955081965050505050505b915091565b6060612842612e4d565b61284a613aa8565b60018060176101000a81548160ff02191690831515021790555061286c613a23565b60018060166101000a81548160ff021916908315150217905550600087879050116128ff576040517f08c379a00000000000000000000000000000000000000000000000000000000081526004018080602001828103825260188152602001807f6275795368617265733a20456d707479205f627579657273000000000000000081525060200191505060405180910390fd5b848490508787905014801561291957508282905087879050145b61298b576040517f08c379a00000000000000000000000000000000000000000000000000000000081526004018080602001828103825260198152602001807f6275795368617265733a20556e657175616c206172726179730000000000000081525060200191505060405180910390fd5b6000600160009054906101000a900473ffffffffffffffffffffffffffffffffffffffff1690506129bb81612eca565b7f000000000000000000000000000000000000000000000000000000000000000073ffffffffffffffffffffffffffffffffffffffff1663d0449d3d826040518263ffffffff1660e01b8152600401808273ffffffffffffffffffffffffffffffffffffffff16815260200191505060206040518083038186803b158015612a4257600080fd5b505afa158015612a56573d6000803e3d6000fd5b505050506040513d6020811015612a6c57600080fd5b810190808051906020019092919050505015612af0576040517f08c379a000000000000000000000000000000000000000000000000000000000815260040180806020018281038252601c8152602001807f6275795368617265733a2050656e64696e67206d6967726174696f6e0000000081525060200191505060405180910390fd5b600080612afd60016124aa565b9150915080612b74576040517f08c379a00000000000000000000000000000000000000000000000000000000081526004018080602001828103825260168152602001807f6275795368617265733a20496e76616c6964204741560000000000000000000081525060200191505060405180910390fd5b612bc033898980806020026020016040519081016040528093929190818152602001838360200280828437600081840152601f19601f8201169050808301925050505050505084614a5a565b60008060009054906101000a900473ffffffffffffffffffffffffffffffffffffffff1690506000612cf9848673ffffffffffffffffffffffffffffffffffffffff166318160ddd6040518163ffffffff1660e01b815260040160206040518083038186803b158015612c3257600080fd5b505afa158015612c46573d6000803e3d6000fd5b505050506040513d6020811015612c5c57600080fd5b81019080805190602001909291905050508473ffffffffffffffffffffffffffffffffffffffff1663313ce5676040518163ffffffff1660e01b815260040160206040518083038186803b158015612cb357600080fd5b505afa158015612cc7573d6000803e3d6000fd5b505050506040513d6020811015612cdd57600080fd5b810190808051906020019092919050505060ff16600a0a614689565b90508b8b905067ffffffffffffffff81118015612d1557600080fd5b50604051908082528060200260200182016040528015612d445781602001602082028036833780820191505090505b50955060005b8c8c9050811015612dfc57612db08d8d83818110612d6457fe5b9050602002013573ffffffffffffffffffffffffffffffffffffffff168c8c84818110612d8d57fe5b905060200201358b8b85818110612da057fe5b9050602002013589868a89614d91565b878281518110612dbc57fe5b602002602001018181525050612ded8b8b83818110612dd757fe5b905060200201358661517190919063ffffffff16565b94508080600101915050612d4a565b50612e083387866151f9565b50505050506000600160166101000a81548160ff0219169083151502179055506000600160176101000a81548160ff0219169083151502179055509695505050505050565b612e55615530565b15612ec8576040517f08c379a000000000000000000000000000000000000000000000000000000000815260040180806020018281038252600e8152602001807f46756e642069732070617573656400000000000000000000000000000000000081525060200191505060405180910390fd5b565b600073ffffffffffffffffffffffffffffffffffffffff168173ffffffffffffffffffffffffffffffffffffffff161415612f6d576040517f08c379a000000000000000000000000000000000000000000000000000000000815260040180806020018281038252600f8152602001807f46756e64206e6f7420616374697665000000000000000000000000000000000081525060200191505060405180910390fd5b50565b600160169054906101000a900460ff16612fd5576040517f08c379a0000000000000000000000000000000000000000000000000000000008152600401808060200182810382526032815260200180616ca66032913960400191505060405180910390fd5b7f000000000000000000000000000000000000000000000000000000000000000073ffffffffffffffffffffffffffffffffffffffff168273ffffffffffffffffffffffffffffffffffffffff1614156130ff576004600781111561303657fe5b81600781111561304257fe5b148061306457506006600781111561305657fe5b81600781111561306257fe5b145b80613084575060078081111561307657fe5b81600781111561308257fe5b145b806130a557506005600781111561309757fe5b8160078111156130a357fe5b145b6130fa576040517f08c379a0000000000000000000000000000000000000000000000000000000008152600401808060200182810382526041815260200180616c216041913960600191505060405180910390fd5b61325b565b7f000000000000000000000000000000000000000000000000000000000000000073ffffffffffffffffffffffffffffffffffffffff168273ffffffffffffffffffffffffffffffffffffffff161415613209576001600781111561316057fe5b81600781111561316c57fe5b148061318e57506002600781111561318057fe5b81600781111561318c57fe5b145b806131af5750600360078111156131a157fe5b8160078111156131ad57fe5b145b613204576040517f08c379a0000000000000000000000000000000000000000000000000000000008152600401808060200182810382526039815260200180616b486039913960400191505060405180910390fd5b61325a565b6040517f08c379a0000000000000000000000000000000000000000000000000000000008152600401808060200182810382526032815260200180616abb6032913960400191505060405180910390fd5b5b5050565b600081806020019051602081101561327657600080fd5b81019080805190602001909291905050509050600160009054906101000a900473ffffffffffffffffffffffffffffffffffffffff1673ffffffffffffffffffffffffffffffffffffffff16634ef0762e826040518263ffffffff1660e01b8152600401808273ffffffffffffffffffffffffffffffffffffffff168152602001915050600060405180830381600087803b15801561331457600080fd5b505af1158015613328573d6000803e3d6000fd5b505050505050565b600080600083806020019051606081101561334a57600080fd5b81019080805190602001909291908051906020019092919080519060200190929190505050925092509250600160009054906101000a900473ffffffffffffffffffffffffffffffffffffffff1673ffffffffffffffffffffffffffffffffffffffff1663c6f2a4b48484846040518463ffffffff1660e01b8152600401808473ffffffffffffffffffffffffffffffffffffffff1681526020018373ffffffffffffffffffffffffffffffffffffffff1681526020018281526020019350505050600060405180830381600087803b15801561342657600080fd5b505af115801561343a573d6000803e3d6000fd5b5050505050505050565b60008082806020019051604081101561345c57600080fd5b81019080805190602001909291908051906020019092919050505091509150600160009054906101000a900473ffffffffffffffffffffffffffffffffffffffff1673ffffffffffffffffffffffffffffffffffffffff1663ee7a7c0483836040518363ffffffff1660e01b8152600401808373ffffffffffffffffffffffffffffffffffffffff16815260200182815260200192505050600060405180830381600087803b15801561350e57600080fd5b505af1158015613522573d6000803e3d6000fd5b50505050505050565b60008082806020019051604081101561354357600080fd5b81019080805190602001909291908051906020019092919050505091509150600160009054906101000a900473ffffffffffffffffffffffffffffffffffffffff1673ffffffffffffffffffffffffffffffffffffffff1663528c198a83836040518363ffffffff1660e01b8152600401808373ffffffffffffffffffffffffffffffffffffffff16815260200182815260200192505050600060405180830381600087803b1580156135f557600080fd5b505af1158015613609573d6000803e3d6000fd5b50505050505050565b600081806020019051602081101561362957600080fd5b8101908080519060200190929190505050905060008054906101000a900473ffffffffffffffffffffffffffffffffffffffff1673ffffffffffffffffffffffffffffffffffffffff168173ffffffffffffffffffffffffffffffffffffffff161461373357600160009054906101000a900473ffffffffffffffffffffffffffffffffffffffff1673ffffffffffffffffffffffffffffffffffffffff166370fbf134826040518263ffffffff1660e01b8152600401808273ffffffffffffffffffffffffffffffffffffffff168152602001915050600060405180830381600087803b15801561371a57600080fd5b505af115801561372e573d6000803e3d6000fd5b505050505b5050565b600080600083806020019051606081101561375157600080fd5b81019080805190602001909291908051906020019092919080519060200190929190505050925092509250600160009054906101000a900473ffffffffffffffffffffffffffffffffffffffff1673ffffffffffffffffffffffffffffffffffffffff1663bfc77beb8484846040518463ffffffff1660e01b8152600401808473ffffffffffffffffffffffffffffffffffffffff1681526020018373ffffffffffffffffffffffffffffffffffffffff1681526020018281526020019350505050600060405180830381600087803b15801561382d57600080fd5b505af1158015613841573d6000803e3d6000fd5b5050505050505050565b600080600083806020019051606081101561386557600080fd5b81019080805190602001909291908051906020019092919080519060200190929190505050925092509250600160009054906101000a900473ffffffffffffffffffffffffffffffffffffffff1673ffffffffffffffffffffffffffffffffffffffff1663495d753c8484846040518463ffffffff1660e01b8152600401808473ffffffffffffffffffffffffffffffffffffffff1681526020018373ffffffffffffffffffffffffffffffffffffffff1681526020018281526020019350505050600060405180830381600087803b15801561394157600080fd5b505af1158015613955573d6000803e3d6000fd5b5050505050505050565b7f000000000000000000000000000000000000000000000000000000000000000073ffffffffffffffffffffffffffffffffffffffff168173ffffffffffffffffffffffffffffffffffffffff1614613a20576040517f08c379a000000000000000000000000000000000000000000000000000000000815260040180806020018281038252601a8152602001807f4f6e6c792046756e644465706c6f7965722063616c6c61626c6500000000000081525060200191505060405180910390fd5b50565b600160169054906101000a900460ff1615613aa6576040517f08c379a00000000000000000000000000000000000000000000000000000000081526004018080602001828103825260188152602001807f5661756c7420616374696f6e2072652d656e7472616e6365000000000000000081525060200191505060405180910390fd5b565b600160179054906101000a900460ff1615613b2b576040517f08c379a000000000000000000000000000000000000000000000000000000000815260040180806020018281038252600b8152602001807f52652d656e7472616e636500000000000000000000000000000000000000000081525060200191505060405180910390fd5b565b606080613b38613aa8565b60018060176101000a81548160ff02191690831515021790555060008511613bab576040517f08c379a000000000000000000000000000000000000000000000000000000000815260040180806020018281038252602a815260200180616b81602a913960400191505060405180910390fd5b613bb484615609565b613c09576040517f08c379a0000000000000000000000000000000000000000000000000000000008152600401808060200182810382526035815260200180616aed6035913960400191505060405180910390fd5b613c1283615609565b613c67576040517f08c379a0000000000000000000000000000000000000000000000000000000008152600401808060200182810382526031815260200180616bab6031913960400191505060405180910390fd5b6000600160009054906101000a900473ffffffffffffffffffffffffffffffffffffffff1690507f000000000000000000000000000000000000000000000000000000000000000073ffffffffffffffffffffffffffffffffffffffff1663d0449d3d826040518263ffffffff1660e01b8152600401808273ffffffffffffffffffffffffffffffffffffffff16815260200191505060206040518083038186803b158015613d1557600080fd5b505afa158015613d29573d6000803e3d6000fd5b505050506040513d6020811015613d3f57600080fd5b8101908080519060200190929190505050613da257613d5d876156cc565b42600360008973ffffffffffffffffffffffffffffffffffffffff1673ffffffffffffffffffffffffffffffffffffffff168152602001908152602001600020819055505b613daa615530565b613db957613db88787615798565b5b60008190508073ffffffffffffffffffffffffffffffffffffffff166370a08231896040518263ffffffff1660e01b8152600401808273ffffffffffffffffffffffffffffffffffffffff16815260200191505060206040518083038186803b158015613e2557600080fd5b505afa158015613e39573d6000803e3d6000fd5b505050506040513d6020811015613e4f57600080fd5b8101908080519060200190929190505050871115613eb8576040517f08c379a0000000000000000000000000000000000000000000000000000000008152600401808060200182810382526023815260200180616d526023913960400191505060405180910390fd5b613fdd8273ffffffffffffffffffffffffffffffffffffffff1663c4b973706040518163ffffffff1660e01b815260040160006040518083038186803b158015613f0157600080fd5b505afa158015613f15573d6000803e3d6000fd5b505050506040513d6000823e3d601f19601f820116820180604052506020811015613f3f57600080fd5b8101908080516040519392919084640100000000821115613f5f57600080fd5b83820191506020820185811115613f7557600080fd5b8251866020820283011164010000000082111715613f9257600080fd5b8083526020830192505050908051906020019060200280838360005b83811015613fc9578082015181840152602081019050613fae565b505050509050016040525050508787615a1b565b93506000845111614056576040517f08c379a00000000000000000000000000000000000000000000000000000000081526004018080602001828103825260208152602001807f5f5f72656465656d5368617265733a204e6f207061796f75742061737365747381525060200191505060405180910390fd5b60008173ffffffffffffffffffffffffffffffffffffffff166318160ddd6040518163ffffffff1660e01b815260040160206040518083038186803b15801561409e57600080fd5b505afa1580156140b2573d6000803e3d6000fd5b505050506040513d60208110156140c857600080fd5b810190808051906020019092919050505090508273ffffffffffffffffffffffffffffffffffffffff1663ee7a7c048a8a6040518363ffffffff1660e01b8152600401808373ffffffffffffffffffffffffffffffffffffffff16815260200182815260200192505050600060405180830381600087803b15801561414c57600080fd5b505af1158015614160573d6000803e3d6000fd5b50505050845167ffffffffffffffff8111801561417c57600080fd5b506040519080825280602002602001820160405280156141ab5781602001602082028036833780820191505090505b50935060008060009054906101000a900473ffffffffffffffffffffffffffffffffffffffff16905060005b865181101561443a576000614201868984815181106141f257fe5b602002602001015160016146d2565b9050838b1415614304578087838151811061421857fe5b6020026020010181815250508273ffffffffffffffffffffffffffffffffffffffff1688838151811061424757fe5b602002602001015173ffffffffffffffffffffffffffffffffffffffff16146142ff578573ffffffffffffffffffffffffffffffffffffffff166370fbf13489848151811061429257fe5b60200260200101516040518263ffffffff1660e01b8152600401808273ffffffffffffffffffffffffffffffffffffffff168152602001915050600060405180830381600087803b1580156142e657600080fd5b505af11580156142fa573d6000803e3d6000fd5b505050505b614342565b6143298461431b8d84615c8c90919063ffffffff16565b615d1290919063ffffffff16565b87838151811061433557fe5b6020026020010181815250505b600087838151811061435057fe5b6020026020010151111561442c578573ffffffffffffffffffffffffffffffffffffffff1663495d753c89848151811061438657fe5b60200260200101518e8a868151811061439b57fe5b60200260200101516040518463ffffffff1660e01b8152600401808473ffffffffffffffffffffffffffffffffffffffff1681526020018373ffffffffffffffffffffffffffffffffffffffff1681526020018281526020019350505050600060405180830381600087803b15801561441357600080fd5b505af1158015614427573d6000803e3d6000fd5b505050505b5080806001019150506141d7565b508973ffffffffffffffffffffffffffffffffffffffff167fce8be57c942668208b28e8687882422313992b50d7731f1467d6d5b881dee1058a8888604051808481526020018060200180602001838103835285818151815260200191508051906020019060200280838360005b838110156144c35780820151818401526020810190506144a8565b50505050905001838103825284818151815260200191508051906020019060200280838360005b838110156145055780820151818401526020810190506144ea565b505050509050019550505050505060405180910390a2505050506000600160176101000a81548160ff02191690831515021790555094509492505050565b600160009054906101000a900473ffffffffffffffffffffffffffffffffffffffff1673ffffffffffffffffffffffffffffffffffffffff1663893d20e86040518163ffffffff1660e01b815260040160206040518083038186803b1580156145ab57600080fd5b505afa1580156145bf573d6000803e3d6000fd5b505050506040513d60208110156145d557600080fd5b810190808051906020019092919050505073ffffffffffffffffffffffffffffffffffffffff168173ffffffffffffffffffffffffffffffffffffffff1614614686576040517f08c379a00000000000000000000000000000000000000000000000000000000081526004018080602001828103825260188152602001807f4f6e6c792066756e64206f776e65722063616c6c61626c65000000000000000081525060200191505060405180910390fd5b50565b60008083141561469b578190506146cb565b6146c8836146ba670de0b6b3a764000087615c8c90919063ffffffff16565b615d1290919063ffffffff16565b90505b9392505050565b6000807f000000000000000000000000000000000000000000000000000000000000000073ffffffffffffffffffffffffffffffffffffffff16638d8c1985856040518263ffffffff1660e01b8152600401808273ffffffffffffffffffffffffffffffffffffffff16815260200191505060206040518083038186803b15801561475c57600080fd5b505afa158015614770573d6000803e3d6000fd5b505050506040513d602081101561478657600080fd5b810190808051906020019092919050505090506000801b81146149ae5760007f000000000000000000000000000000000000000000000000000000000000000073ffffffffffffffffffffffffffffffffffffffff1663dacb2d016040518163ffffffff1660e01b815260040180807f45786368616e6765720000000000000000000000000000000000000000000000815250602001806020018281038252602d815260200180616cd8602d913960400191505060206040518083038186803b15801561485257600080fd5b505afa158015614866573d6000803e3d6000fd5b505050506040513d602081101561487c57600080fd5b810190808051906020019092919050505090508073ffffffffffffffffffffffffffffffffffffffff16631b16802c87846040518363ffffffff1660e01b8152600401808373ffffffffffffffffffffffffffffffffffffffff16815260200182815260200192505050606060405180830381600087803b15801561490057600080fd5b505af192505050801561494857506040513d606081101561492057600080fd5b8101908080519060200190929190805190602001909291908051906020019092919050505060015b6149a85783156149a3576040517f08c379a000000000000000000000000000000000000000000000000000000000815260040180806020018281038252602f815260200180616a8c602f913960400191505060405180910390fd5b6149ac565b5050505b505b8373ffffffffffffffffffffffffffffffffffffffff166370a08231866040518263ffffffff1660e01b8152600401808273ffffffffffffffffffffffffffffffffffffffff16815260200191505060206040518083038186803b158015614a1557600080fd5b505afa158015614a29573d6000803e3d6000fd5b505050506040513d6020811015614a3f57600080fd5b81019080805190602001909291905050509150509392505050565b7f000000000000000000000000000000000000000000000000000000000000000073ffffffffffffffffffffffffffffffffffffffff16630442bad5306000868686604051602001808473ffffffffffffffffffffffffffffffffffffffff16815260200180602001838152602001828103825284818151815260200191508051906020019060200280838360005b83811015614b04578082015181840152602081019050614ae9565b505050509050019450505050506040516020818303038152906040526040518463ffffffff1660e01b8152600401808473ffffffffffffffffffffffffffffffffffffffff168152602001836005811115614b5b57fe5b815260200180602001828103825283818151815260200191508051906020019080838360005b83811015614b9c578082015181840152602081019050614b81565b50505050905090810190601f168015614bc95780820380516001836020036101000a031916815260200191505b50945050505050600060405180830381600087803b158015614bea57600080fd5b505af1158015614bfe573d6000803e3d6000fd5b505050507f000000000000000000000000000000000000000000000000000000000000000073ffffffffffffffffffffffffffffffffffffffff16637759c16460018585604051602001808373ffffffffffffffffffffffffffffffffffffffff16815260200180602001828103825283818151815260200191508051906020019060200280838360005b83811015614ca4578082015181840152602081019050614c89565b505050509050019350505050604051602081830303815290604052846040518463ffffffff1660e01b815260040180846005811115614cdf57fe5b815260200180602001838152602001828103825284818151815260200191508051906020019080838360005b83811015614d26578082015181840152602081019050614d0b565b50505050905090810190601f168015614d535780820380516001836020036101000a031916815260200191505b50945050505050600060405180830381600087803b158015614d7457600080fd5b505af1158015614d88573d6000803e3d6000fd5b50505050505050565b600087614d9d816156cc565b60008811614df6576040517f08c379a0000000000000000000000000000000000000000000000000000000008152600401808060200182810382526024815260200180616bfd6024913960400191505060405180910390fd5b614e0289898987615d9b565b6000614e3186614e23670de0b6b3a76400008c615c8c90919063ffffffff16565b615d1290919063ffffffff16565b905060008773ffffffffffffffffffffffffffffffffffffffff166370a082318c6040518263ffffffff1660e01b8152600401808273ffffffffffffffffffffffffffffffffffffffff16815260200191505060206040518083038186803b158015614e9c57600080fd5b505afa158015614eb0573d6000803e3d6000fd5b505050506040513d6020811015614ec657600080fd5b810190808051906020019092919050505090508773ffffffffffffffffffffffffffffffffffffffff1663528c198a8c846040518363ffffffff1660e01b8152600401808373ffffffffffffffffffffffffffffffffffffffff16815260200182815260200192505050600060405180830381600087803b158015614f4a57600080fd5b505af1158015614f5e573d6000803e3d6000fd5b50505050614f8f33898c8873ffffffffffffffffffffffffffffffffffffffff16616061909392919063ffffffff16565b614f9b8b8b8489616122565b61504f818973ffffffffffffffffffffffffffffffffffffffff166370a082318e6040518263ffffffff1660e01b8152600401808273ffffffffffffffffffffffffffffffffffffffff16815260200191505060206040518083038186803b15801561500657600080fd5b505afa15801561501a573d6000803e3d6000fd5b505050506040513d602081101561503057600080fd5b810190808051906020019092919050505061640090919063ffffffff16565b9350888410156150aa576040517f08c379a0000000000000000000000000000000000000000000000000000000008152600401808060200182810382526031815260200180616a5b6031913960400191505060405180910390fd5b8a73ffffffffffffffffffffffffffffffffffffffff163373ffffffffffffffffffffffffffffffffffffffff167f050bd6ef6b1b818f58ae43f028aa7318a580ca0c793eca2df0033c7ae63094588c858860405180848152602001838152602001828152602001935050505060405180910390a3505042600360008373ffffffffffffffffffffffffffffffffffffffff1673ffffffffffffffffffffffffffffffffffffffff1681526020019081526020016000208190555050979650505050505050565b6000808284019050838110156151ef576040517f08c379a000000000000000000000000000000000000000000000000000000000815260040180806020018281038252601b8152602001807f536166654d6174683a206164646974696f6e206f766572666c6f77000000000081525060200191505060405180910390fd5b8091505092915050565b7f000000000000000000000000000000000000000000000000000000000000000073ffffffffffffffffffffffffffffffffffffffff16630442bad5306003868686604051602001808473ffffffffffffffffffffffffffffffffffffffff16815260200180602001838152602001828103825284818151815260200191508051906020019060200280838360005b838110156152a3578082015181840152602081019050615288565b505050509050019450505050506040516020818303038152906040526040518463ffffffff1660e01b8152600401808473ffffffffffffffffffffffffffffffffffffffff1681526020018360058111156152fa57fe5b815260200180602001828103825283818151815260200191508051906020019080838360005b8381101561533b578082015181840152602081019050615320565b50505050905090810190601f1680156153685780820380516001836020036101000a031916815260200191505b50945050505050600060405180830381600087803b15801561538957600080fd5b505af115801561539d573d6000803e3d6000fd5b505050507f000000000000000000000000000000000000000000000000000000000000000073ffffffffffffffffffffffffffffffffffffffff16637759c16460048585604051602001808373ffffffffffffffffffffffffffffffffffffffff16815260200180602001828103825283818151815260200191508051906020019060200280838360005b83811015615443578082015181840152602081019050615428565b505050509050019350505050604051602081830303815290604052846040518463ffffffff1660e01b81526004018084600581111561547e57fe5b815260200180602001838152602001828103825284818151815260200191508051906020019080838360005b838110156154c55780820151818401526020810190506154aa565b50505050905090810190601f1680156154f25780820380516001836020036101000a031916815260200191505b50945050505050600060405180830381600087803b15801561551357600080fd5b505af1158015615527573d6000803e3d6000fd5b50505050505050565b600060028081111561553e57fe5b7f000000000000000000000000000000000000000000000000000000000000000073ffffffffffffffffffffffffffffffffffffffff1663a5fede1d6040518163ffffffff1660e01b815260040160206040518083038186803b1580156155a457600080fd5b505afa1580156155b8573d6000803e3d6000fd5b505050506040513d60208110156155ce57600080fd5b810190808051906020019092919050505060028111156155ea57fe5b1480156156045750600160159054906101000a900460ff16155b905090565b6000600182511161561d57600190506156c7565b60008251905060005b818110156156c05760006001820190505b828110156156b25784818151811061564b57fe5b602002602001015173ffffffffffffffffffffffffffffffffffffffff1685838151811061567557fe5b602002602001015173ffffffffffffffffffffffffffffffffffffffff1614156156a557600093505050506156c7565b8080600101915050615637565b508080600101915050615626565b5060019150505b919050565b600254615721600360008473ffffffffffffffffffffffffffffffffffffffff1673ffffffffffffffffffffffffffffffffffffffff168152602001908152602001600020544261640090919063ffffffff16565b1015615795576040517f08c379a00000000000000000000000000000000000000000000000000000000081526004018080602001828103825260188152602001807f53686172657320616374696f6e2074696d656c6f636b6564000000000000000081525060200191505060405180910390fd5b50565b6157a0613a23565b60018060166101000a81548160ff0219169083151502179055507f000000000000000000000000000000000000000000000000000000000000000073ffffffffffffffffffffffffffffffffffffffff16637759c16460058484604051602001808373ffffffffffffffffffffffffffffffffffffffff1681526020018281526020019250505060405160208183030381529060405260006040518463ffffffff1660e01b81526004018084600581111561585757fe5b815260200180602001838152602001828103825284818151815260200191508051906020019080838360005b8381101561589e578082015181840152602081019050615883565b50505050905090810190601f1680156158cb5780820380516001836020036101000a031916815260200191505b50945050505050600060405180830381600087803b1580156158ec57600080fd5b505af19250505080156158fd575060015b6159fb573d806000811461592d576040519150601f19603f3d011682016040523d82523d6000602084013e615932565b606091505b507fb3ea7e5141baf21804d12f5a635e83e0cb869c8b06b88648364769f85aa73fc281848460405180806020018473ffffffffffffffffffffffffffffffffffffffff168152602001838152602001828103825285818151815260200191508051906020019080838360005b838110156159b957808201518184015260208101905061599e565b50505050905090810190601f1680156159e65780820380516001836020036101000a031916815260200191505b5094505050505060405180910390a1506159fc565b5b6000600160166101000a81548160ff0219169083151502179055505050565b606080615a31838661648390919063ffffffff16565b9050600084511415615a465780915050615c85565b6060845167ffffffffffffffff81118015615a6057600080fd5b50604051908082528060200260200182016040528015615a8f5781602001602082028036833780820191505090505b5090506000805b8651811015615aff57615ac5878281518110615aae57fe5b60200260200101518561665490919063ffffffff16565b615af2576001838281518110615ad757fe5b60200260200101901515908115158152505081806001019250505b8080600101915050615a96565b506000811415615b1457829350505050615c85565b615b2881845161517190919063ffffffff16565b67ffffffffffffffff81118015615b3e57600080fd5b50604051908082528060200260200182016040528015615b6d5781602001602082028036833780820191505090505b50935060005b8351811015615be357838181518110615b8857fe5b6020026020010151858281518110615b9c57fe5b602002602001019073ffffffffffffffffffffffffffffffffffffffff16908173ffffffffffffffffffffffffffffffffffffffff16815250508080600101915050615b73565b5060008351905060005b8751811015615c7f57838181518110615c0257fe5b602002602001015115615c7257878181518110615c1b57fe5b6020026020010151868381518110615c2f57fe5b602002602001019073ffffffffffffffffffffffffffffffffffffffff16908173ffffffffffffffffffffffffffffffffffffffff168152505081806001019250505b8080600101915050615bed565b50505050505b9392505050565b600080831415615c9f5760009050615d0c565b6000828402905082848281615cb057fe5b0414615d07576040517f08c379a0000000000000000000000000000000000000000000000000000000008152600401808060200182810382526021815260200180616c856021913960400191505060405180910390fd5b809150505b92915050565b6000808211615d89576040517f08c379a000000000000000000000000000000000000000000000000000000000815260040180806020018281038252601a8152602001807f536166654d6174683a206469766973696f6e206279207a65726f00000000000081525060200191505060405180910390fd5b818381615d9257fe5b04905092915050565b7f000000000000000000000000000000000000000000000000000000000000000073ffffffffffffffffffffffffffffffffffffffff16637759c1646002868686604051602001808473ffffffffffffffffffffffffffffffffffffffff1681526020018381526020018281526020019350505050604051602081830303815290604052846040518463ffffffff1660e01b815260040180846005811115615e3f57fe5b815260200180602001838152602001828103825284818151815260200191508051906020019080838360005b83811015615e86578082015181840152602081019050615e6b565b50505050905090810190601f168015615eb35780820380516001836020036101000a031916815260200191505b50945050505050600060405180830381600087803b158015615ed457600080fd5b505af1158015615ee8573d6000803e3d6000fd5b505050507f000000000000000000000000000000000000000000000000000000000000000073ffffffffffffffffffffffffffffffffffffffff16630442bad530600187878787604051602001808573ffffffffffffffffffffffffffffffffffffffff1681526020018481526020018381526020018281526020019450505050506040516020818303038152906040526040518463ffffffff1660e01b8152600401808473ffffffffffffffffffffffffffffffffffffffff168152602001836005811115615fb457fe5b815260200180602001828103825283818151815260200191508051906020019080838360005b83811015615ff5578082015181840152602081019050615fda565b50505050905090810190601f1680156160225780820380516001836020036101000a031916815260200191505b50945050505050600060405180830381600087803b15801561604357600080fd5b505af1158015616057573d6000803e3d6000fd5b5050505050505050565b61611c846323b872dd60e01b858585604051602401808473ffffffffffffffffffffffffffffffffffffffff1681526020018373ffffffffffffffffffffffffffffffffffffffff1681526020018281526020019350505050604051602081830303815290604052907bffffffffffffffffffffffffffffffffffffffffffffffffffffffff19166020820180517bffffffffffffffffffffffffffffffffffffffffffffffffffffffff83818316178352505050506166cb565b50505050565b6000616137848361517190919063ffffffff16565b90507f000000000000000000000000000000000000000000000000000000000000000073ffffffffffffffffffffffffffffffffffffffff16637759c1646003878787604051602001808473ffffffffffffffffffffffffffffffffffffffff1681526020018381526020018281526020019350505050604051602081830303815290604052846040518463ffffffff1660e01b8152600401808460058111156161dd57fe5b815260200180602001838152602001828103825284818151815260200191508051906020019080838360005b83811015616224578082015181840152602081019050616209565b50505050905090810190601f1680156162515780820380516001836020036101000a031916815260200191505b50945050505050600060405180830381600087803b15801561627257600080fd5b505af1158015616286573d6000803e3d6000fd5b505050507f000000000000000000000000000000000000000000000000000000000000000073ffffffffffffffffffffffffffffffffffffffff16630442bad530600288888887604051602001808573ffffffffffffffffffffffffffffffffffffffff1681526020018481526020018381526020018281526020019450505050506040516020818303038152906040526040518463ffffffff1660e01b8152600401808473ffffffffffffffffffffffffffffffffffffffff16815260200183600581111561635257fe5b815260200180602001828103825283818151815260200191508051906020019080838360005b83811015616393578082015181840152602081019050616378565b50505050905090810190601f1680156163c05780820380516001836020036101000a031916815260200191505b50945050505050600060405180830381600087803b1580156163e157600080fd5b505af11580156163f5573d6000803e3d6000fd5b505050505050505050565b600082821115616478576040517f08c379a000000000000000000000000000000000000000000000000000000000815260040180806020018281038252601e8152602001807f536166654d6174683a207375627472616374696f6e206f766572666c6f77000081525060200191505060405180910390fd5b818303905092915050565b60606000825114156164975782905061664e565b6060835167ffffffffffffffff811180156164b157600080fd5b506040519080825280602002602001820160405280156164e05781602001602082028036833780820191505090505b50905060008451905060005b855181101561654e576165128587838151811061650557fe5b6020026020010151616654565b1561654157600183828151811061652557fe5b6020026020010190151590811515815250508180600190039250505b80806001019150506164ec565b5084518114156165605784925061664b565b600081111561664a578067ffffffffffffffff8111801561658057600080fd5b506040519080825280602002602001820160405280156165af5781602001602082028036833780820191505090505b5092506000805b8651811015616647578381815181106165cb57fe5b602002602001015161663a578681815181106165e357fe5b60200260200101518583815181106165f757fe5b602002602001019073ffffffffffffffffffffffffffffffffffffffff16908173ffffffffffffffffffffffffffffffffffffffff168152505081806001019250505b80806001019150506165b6565b50505b5b50505b92915050565b6000805b83518110156166bf5783818151811061666d57fe5b602002602001015173ffffffffffffffffffffffffffffffffffffffff168373ffffffffffffffffffffffffffffffffffffffff1614156166b25760019150506166c5565b8080600101915050616658565b50600090505b92915050565b606061672d826040518060400160405280602081526020017f5361666545524332303a206c6f772d6c6576656c2063616c6c206661696c65648152508573ffffffffffffffffffffffffffffffffffffffff166167ba9092919063ffffffff16565b90506000815111156167b55780806020019051602081101561674e57600080fd5b81019080805190602001909291905050506167b4576040517f08c379a000000000000000000000000000000000000000000000000000000000815260040180806020018281038252602a815260200180616d28602a913960400191505060405180910390fd5b5b505050565b60606167c984846000856167d2565b90509392505050565b60608247101561682d576040517f08c379a0000000000000000000000000000000000000000000000000000000008152600401808060200182810382526026815260200180616b226026913960400191505060405180910390fd5b6168368561697b565b6168a8576040517f08c379a000000000000000000000000000000000000000000000000000000000815260040180806020018281038252601d8152602001807f416464726573733a2063616c6c20746f206e6f6e2d636f6e747261637400000081525060200191505060405180910390fd5b600060608673ffffffffffffffffffffffffffffffffffffffff1685876040518082805190602001908083835b602083106168f857805182526020820191506020810190506020830392506168d5565b6001836020036101000a03801982511681845116808217855250505050505090500191505060006040518083038185875af1925050503d806000811461695a576040519150601f19603f3d011682016040523d82523d6000602084013e61695f565b606091505b509150915061696f82828661698e565b92505050949350505050565b600080823b905060008111915050919050565b6060831561699e57829050616a53565b6000835111156169b15782518084602001fd5b816040517f08c379a00000000000000000000000000000000000000000000000000000000081526004018080602001828103825283818151815260200191508051906020019080838360005b83811015616a185780820151818401526020810190506169fd565b50505050905090810190601f168015616a455780820380516001836020036101000a031916815260200191505b509250505060405180910390fd5b939250505056fe5f5f6275795368617265733a20536861726573207265636569766564203c205f6d696e5368617265735175616e7469747966696e616c697a65416e64476574417373657442616c616e63653a2043616e6e6f7420736574746c652053796e74685f5f6173736572745065726d697373696f6e65645661756c74416374696f6e3a204e6f7420612076616c6964206163746f725f5f72656465656d5368617265733a205f6164646974696f6e616c41737365747320636f6e7461696e73206475706c696361746573416464726573733a20696e73756666696369656e742062616c616e636520666f722063616c6c5f5f6173736572745065726d697373696f6e65645661756c74416374696f6e3a204e6f742076616c696420666f72204665654d616e616765725f5f72656465656d5368617265733a205f7368617265735175616e74697479206d757374206265203e305f5f72656465656d5368617265733a205f617373657473546f536b697020636f6e7461696e73206475706c6963617465737661756c7443616c6c4f6e436f6e74726163743a20556e726567697374657265645f5f6275795368617265733a20456d707479205f696e766573746d656e74416d6f756e745f5f6173736572745065726d697373696f6e65645661756c74416374696f6e3a204e6f742076616c696420666f7220496e746567726174696f6e4d616e6167657263616c6c4f6e457874656e73696f6e3a205f657874656e73696f6e20696e76616c6964536166654d6174683a206d756c7469706c69636174696f6e206f766572666c6f775f5f6173736572745065726d697373696f6e65645661756c74416374696f6e3a204e6f20616374696f6e20616c6c6f77656466696e616c697a65416e64476574417373657442616c616e63653a204d697373696e672045786368616e6765727365744f7665727269646550617573653a2056616c756520616c7265616479207365745361666545524332303a204552433230206f7065726174696f6e20646964206e6f7420737563636565645f5f72656465656d5368617265733a20496e73756666696369656e7420736861726573a2646970667358221220887b394cb254da92692e65d7c4343300ca4f445ffcc1403048dd106763bdbad364736f6c634300060c0033",
  "linkReferences": {},
  "deployedLinkReferences": {}
}